{
  "contractName": "Campaign",
  "abi": [
    {
      "inputs": [
        {
          "internalType": "uint256",
          "name": "minimum",
          "type": "uint256"
        },
        {
          "internalType": "address",
          "name": "creator",
          "type": "address"
        },
        {
          "internalType": "string",
          "name": "name",
          "type": "string"
        },
        {
          "internalType": "string",
          "name": "description",
          "type": "string"
        },
        {
          "internalType": "string",
          "name": "image",
          "type": "string"
        },
        {
          "internalType": "uint256",
          "name": "target",
          "type": "uint256"
        }
      ],
      "stateMutability": "nonpayable",
      "type": "constructor"
    },
    {
      "inputs": [
        {
          "internalType": "address",
          "name": "",
          "type": "address"
        }
      ],
      "name": "approvers",
      "outputs": [
        {
          "internalType": "bool",
          "name": "",
          "type": "bool"
        }
      ],
      "stateMutability": "view",
      "type": "function",
      "constant": true
    },
    {
      "inputs": [],
      "name": "approversCount",
      "outputs": [
        {
          "internalType": "uint256",
          "name": "",
          "type": "uint256"
        }
      ],
      "stateMutability": "view",
      "type": "function",
      "constant": true
    },
    {
      "inputs": [],
      "name": "campaignDescription",
      "outputs": [
        {
          "internalType": "string",
          "name": "",
          "type": "string"
        }
      ],
      "stateMutability": "view",
      "type": "function",
      "constant": true
    },
    {
      "inputs": [],
      "name": "campaignName",
      "outputs": [
        {
          "internalType": "string",
          "name": "",
          "type": "string"
        }
      ],
      "stateMutability": "view",
      "type": "function",
      "constant": true
    },
    {
      "inputs": [
        {
          "internalType": "uint256",
          "name": "",
          "type": "uint256"
        }
      ],
      "name": "contributors",
      "outputs": [
        {
          "internalType": "address",
          "name": "",
          "type": "address"
        }
      ],
      "stateMutability": "view",
      "type": "function",
      "constant": true
    },
    {
      "inputs": [],
      "name": "imageUrl",
      "outputs": [
        {
          "internalType": "string",
          "name": "",
          "type": "string"
        }
      ],
      "stateMutability": "view",
      "type": "function",
      "constant": true
    },
    {
      "inputs": [],
      "name": "manager",
      "outputs": [
        {
          "internalType": "address",
          "name": "",
          "type": "address"
        }
      ],
      "stateMutability": "view",
      "type": "function",
      "constant": true
    },
    {
      "inputs": [],
      "name": "minimumContribution",
      "outputs": [
        {
          "internalType": "uint256",
          "name": "",
          "type": "uint256"
        }
      ],
      "stateMutability": "view",
      "type": "function",
      "constant": true
    },
    {
      "inputs": [
        {
          "internalType": "uint256",
          "name": "",
          "type": "uint256"
        }
      ],
      "name": "requests",
      "outputs": [
        {
          "internalType": "string",
          "name": "description",
          "type": "string"
        },
        {
          "internalType": "uint256",
          "name": "value",
          "type": "uint256"
        },
        {
          "internalType": "address payable",
          "name": "recipient",
          "type": "address"
        },
        {
          "internalType": "bool",
          "name": "complete",
          "type": "bool"
        },
        {
          "internalType": "uint256",
          "name": "approvalCount",
          "type": "uint256"
        }
      ],
      "stateMutability": "view",
      "type": "function",
      "constant": true
    },
    {
      "inputs": [],
      "name": "targetToAchieve",
      "outputs": [
        {
          "internalType": "uint256",
          "name": "",
          "type": "uint256"
        }
      ],
      "stateMutability": "view",
      "type": "function",
      "constant": true
    },
    {
      "inputs": [],
      "name": "contribute",
      "outputs": [],
      "stateMutability": "payable",
      "type": "function",
      "payable": true
    },
    {
      "inputs": [
        {
          "internalType": "string",
          "name": "description",
          "type": "string"
        },
        {
          "internalType": "uint256",
          "name": "value",
          "type": "uint256"
        },
        {
          "internalType": "address payable",
          "name": "recipient",
          "type": "address"
        }
      ],
      "name": "createRequest",
      "outputs": [],
      "stateMutability": "nonpayable",
      "type": "function"
    },
    {
      "inputs": [
        {
          "internalType": "uint256",
          "name": "index",
          "type": "uint256"
        }
      ],
      "name": "approveRequest",
      "outputs": [],
      "stateMutability": "nonpayable",
      "type": "function"
    },
    {
      "inputs": [
        {
          "internalType": "uint256",
          "name": "index",
          "type": "uint256"
        }
      ],
      "name": "finalizeRequest",
      "outputs": [],
      "stateMutability": "nonpayable",
      "type": "function"
    },
    {
      "inputs": [],
      "name": "getSummary",
      "outputs": [
        {
          "internalType": "uint256",
          "name": "",
          "type": "uint256"
        },
        {
          "internalType": "uint256",
          "name": "",
          "type": "uint256"
        },
        {
          "internalType": "uint256",
          "name": "",
          "type": "uint256"
        },
        {
          "internalType": "uint256",
          "name": "",
          "type": "uint256"
        },
        {
          "internalType": "address",
          "name": "",
          "type": "address"
        },
        {
          "internalType": "string",
          "name": "",
          "type": "string"
        },
        {
          "internalType": "string",
          "name": "",
          "type": "string"
        },
        {
          "internalType": "string",
          "name": "",
          "type": "string"
        },
        {
          "internalType": "uint256",
          "name": "",
          "type": "uint256"
        }
      ],
      "stateMutability": "view",
      "type": "function",
      "constant": true
    },
    {
      "inputs": [],
      "name": "getRequestsCount",
      "outputs": [
        {
          "internalType": "uint256",
          "name": "",
          "type": "uint256"
        }
      ],
      "stateMutability": "view",
      "type": "function",
      "constant": true
    }
  ],
  "bytecode": "0x60806040523480156200001157600080fd5b5060405162001f8e38038062001f8e83398181016040528101906200003791906200022d565b84600160006101000a81548173ffffffffffffffffffffffffffffffffffffffff021916908373ffffffffffffffffffffffffffffffffffffffff16021790555085600281905550836003908051906020019062000097929190620000dd565b508260049080519060200190620000b0929190620000dd565b508160059080519060200190620000c9929190620000dd565b5080600681905550505050505050620004b1565b828054620000eb90620003e9565b90600052602060002090601f0160209004810192826200010f57600085556200015b565b82601f106200012a57805160ff19168380011785556200015b565b828001600101855582156200015b579182015b828111156200015a5782518255916020019190600101906200013d565b5b5090506200016a91906200016e565b5090565b5b80821115620001895760008160009055506001016200016f565b5090565b6000620001a46200019e8462000342565b6200030e565b905082815260208101848484011115620001bd57600080fd5b620001ca848285620003b3565b509392505050565b600081519050620001e3816200047d565b92915050565b600082601f830112620001fb57600080fd5b81516200020d8482602086016200018d565b91505092915050565b600081519050620002278162000497565b92915050565b60008060008060008060c087890312156200024757600080fd5b60006200025789828a0162000216565b96505060206200026a89828a01620001d2565b955050604087015167ffffffffffffffff8111156200028857600080fd5b6200029689828a01620001e9565b945050606087015167ffffffffffffffff811115620002b457600080fd5b620002c289828a01620001e9565b935050608087015167ffffffffffffffff811115620002e057600080fd5b620002ee89828a01620001e9565b92505060a06200030189828a0162000216565b9150509295509295509295565b6000604051905081810181811067ffffffffffffffff821117156200033857620003376200044e565b5b8060405250919050565b600067ffffffffffffffff82111562000360576200035f6200044e565b5b601f19601f8301169050602081019050919050565b6000620003828262000389565b9050919050565b600073ffffffffffffffffffffffffffffffffffffffff82169050919050565b6000819050919050565b60005b83811015620003d3578082015181840152602081019050620003b6565b83811115620003e3576000848401525b50505050565b600060028204905060018216806200040257607f821691505b602082108114156200041957620004186200041f565b5b50919050565b7f4e487b7100000000000000000000000000000000000000000000000000000000600052602260045260246000fd5b7f4e487b7100000000000000000000000000000000000000000000000000000000600052604160045260246000fd5b620004888162000375565b81146200049457600080fd5b50565b620004a281620003a9565b8114620004ae57600080fd5b50565b611acd80620004c16000396000f3fe6080604052600436106100f35760003560e01c806381d12c581161008a578063aba8315011610059578063aba831501461033a578063b2a87fc314610365578063d7bb99ba14610390578063d7d1bbdb1461039a576100f3565b806381d12c581461027a57806382fde093146102bb5780638a9cfd55146102e6578063937e09b11461030f576100f3565b80633410452a116100c65780633410452a146101b45780633cb5d100146101df5780634051ddac1461021c578063481c6a751461024f576100f3565b806303441006146100f85780630724fda9146101215780630a1443911461014c578063110842cb14610189575b600080fd5b34801561010457600080fd5b5061011f600480360381019061011a91906112db565b6103c3565b005b34801561012d57600080fd5b506101366106eb565b60405161014391906115c7565b60405180910390f35b34801561015857600080fd5b50610173600480360381019061016e919061124b565b610779565b60405161018091906115ac565b60405180910390f35b34801561019557600080fd5b5061019e610799565b6040516101ab91906115c7565b60405180910390f35b3480156101c057600080fd5b506101c9610827565b6040516101d69190611703565b60405180910390f35b3480156101eb57600080fd5b50610206600480360381019061020191906112db565b610833565b6040516102139190611591565b60405180910390f35b34801561022857600080fd5b50610231610872565b6040516102469998979695949392919061171e565b60405180910390f35b34801561025b57600080fd5b50610264610a7b565b6040516102719190611591565b60405180910390f35b34801561028657600080fd5b506102a1600480360381019061029c91906112db565b610aa1565b6040516102b29594939291906115e9565b60405180910390f35b3480156102c757600080fd5b506102d0610b9c565b6040516102dd9190611703565b60405180910390f35b3480156102f257600080fd5b5061030d60048036038101906103089190611274565b610ba2565b005b34801561031b57600080fd5b50610324610ce7565b6040516103319190611703565b60405180910390f35b34801561034657600080fd5b5061034f610ced565b60405161035c91906115c7565b60405180910390f35b34801561037157600080fd5b5061037a610d7b565b6040516103879190611703565b60405180910390f35b610398610d81565b005b3480156103a657600080fd5b506103c160048036038101906103bc91906112db565b610e9a565b005b600160009054906101000a900473ffffffffffffffffffffffffffffffffffffffff1673ffffffffffffffffffffffffffffffffffffffff163373ffffffffffffffffffffffffffffffffffffffff1614610453576040517f08c379a000000000000000000000000000000000000000000000000000000000815260040161044a90611643565b60405180910390fd5b6002600954610462919061183d565b6000828154811061049c577f4e487b7100000000000000000000000000000000000000000000000000000000600052603260045260246000fd5b906000526020600020906005020160030154116104ee576040517f08c379a00000000000000000000000000000000000000000000000000000000081526004016104e590611683565b60405180910390fd5b60008181548110610528577f4e487b7100000000000000000000000000000000000000000000000000000000600052603260045260246000fd5b906000526020600020906005020160020160149054906101000a900460ff1615610587576040517f08c379a000000000000000000000000000000000000000000000000000000000815260040161057e906116c3565b60405180910390fd5b600081815481106105c1577f4e487b7100000000000000000000000000000000000000000000000000000000600052603260045260246000fd5b906000526020600020906005020160020160009054906101000a900473ffffffffffffffffffffffffffffffffffffffff1673ffffffffffffffffffffffffffffffffffffffff166108fc60008381548110610646577f4e487b7100000000000000000000000000000000000000000000000000000000600052603260045260246000fd5b9060005260206000209060050201600101549081150290604051600060405180830381858888f19350505050158015610683573d6000803e3d6000fd5b506001600082815481106106c0577f4e487b7100000000000000000000000000000000000000000000000000000000600052603260045260246000fd5b906000526020600020906005020160020160146101000a81548160ff02191690831515021790555050565b600380546106f89061190a565b80601f01602080910402602001604051908101604052809291908181526020018280546107249061190a565b80156107715780601f1061074657610100808354040283529160200191610771565b820191906000526020600020905b81548152906001019060200180831161075457829003601f168201915b505050505081565b60086020528060005260406000206000915054906101000a900460ff1681565b600480546107a69061190a565b80601f01602080910402602001604051908101604052809291908181526020018280546107d29061190a565b801561081f5780601f106107f45761010080835404028352916020019161081f565b820191906000526020600020905b81548152906001019060200180831161080257829003601f168201915b505050505081565b60008080549050905090565b6007818154811061084357600080fd5b906000526020600020016000915054906101000a900473ffffffffffffffffffffffffffffffffffffffff1681565b60008060008060006060806060600060025447600080549050600954600160009054906101000a900473ffffffffffffffffffffffffffffffffffffffff166003600460056006548380546108c69061190a565b80601f01602080910402602001604051908101604052809291908181526020018280546108f29061190a565b801561093f5780601f106109145761010080835404028352916020019161093f565b820191906000526020600020905b81548152906001019060200180831161092257829003601f168201915b505050505093508280546109529061190a565b80601f016020809104026020016040519081016040528092919081815260200182805461097e9061190a565b80156109cb5780601f106109a0576101008083540402835291602001916109cb565b820191906000526020600020905b8154815290600101906020018083116109ae57829003601f168201915b505050505092508180546109de9061190a565b80601f0160208091040260200160405190810160405280929190818152602001828054610a0a9061190a565b8015610a575780601f10610a2c57610100808354040283529160200191610a57565b820191906000526020600020905b815481529060010190602001808311610a3a57829003601f168201915b50505050509150985098509850985098509850985098509850909192939495969798565b600160009054906101000a900473ffffffffffffffffffffffffffffffffffffffff1681565b60008181548110610ab157600080fd5b9060005260206000209060050201600091509050806000018054610ad49061190a565b80601f0160208091040260200160405190810160405280929190818152602001828054610b009061190a565b8015610b4d5780601f10610b2257610100808354040283529160200191610b4d565b820191906000526020600020905b815481529060010190602001808311610b3057829003601f168201915b5050505050908060010154908060020160009054906101000a900473ffffffffffffffffffffffffffffffffffffffff16908060020160149054906101000a900460ff16908060030154905085565b60095481565b600160009054906101000a900473ffffffffffffffffffffffffffffffffffffffff1673ffffffffffffffffffffffffffffffffffffffff163373ffffffffffffffffffffffffffffffffffffffff1614610c32576040517f08c379a0000000000000000000000000000000000000000000000000000000008152600401610c2990611643565b60405180910390fd5b600080600181600181540180825580915050039060005260206000209060050201905083816000019080519060200190610c6d929190611101565b50828160010181905550818160020160006101000a81548173ffffffffffffffffffffffffffffffffffffffff021916908373ffffffffffffffffffffffffffffffffffffffff16021790555060008160020160146101000a81548160ff0219169083151502179055506000816003018190555050505050565b60025481565b60058054610cfa9061190a565b80601f0160208091040260200160405190810160405280929190818152602001828054610d269061190a565b8015610d735780601f10610d4857610100808354040283529160200191610d73565b820191906000526020600020905b815481529060010190602001808311610d5657829003601f168201915b505050505081565b60065481565b6002543411610dc5576040517f08c379a0000000000000000000000000000000000000000000000000000000008152600401610dbc906116a3565b60405180910390fd5b6007339080600181540180825580915050600190039060005260206000200160009091909190916101000a81548173ffffffffffffffffffffffffffffffffffffffff021916908373ffffffffffffffffffffffffffffffffffffffff1602179055506001600860003373ffffffffffffffffffffffffffffffffffffffff1673ffffffffffffffffffffffffffffffffffffffff16815260200190815260200160002060006101000a81548160ff02191690831515021790555060096000815480929190610e939061193c565b9190505550565b600860003373ffffffffffffffffffffffffffffffffffffffff1673ffffffffffffffffffffffffffffffffffffffff16815260200190815260200160002060009054906101000a900460ff16610f26576040517f08c379a0000000000000000000000000000000000000000000000000000000008152600401610f1d906116e3565b60405180910390fd5b60008181548110610f60577f4e487b7100000000000000000000000000000000000000000000000000000000600052603260045260246000fd5b906000526020600020906005020160040160003373ffffffffffffffffffffffffffffffffffffffff1673ffffffffffffffffffffffffffffffffffffffff16815260200190815260200160002060009054906101000a900460ff1615610ffc576040517f08c379a0000000000000000000000000000000000000000000000000000000008152600401610ff390611663565b60405180910390fd5b600160008281548110611038577f4e487b7100000000000000000000000000000000000000000000000000000000600052603260045260246000fd5b906000526020600020906005020160040160003373ffffffffffffffffffffffffffffffffffffffff1673ffffffffffffffffffffffffffffffffffffffff16815260200190815260200160002060006101000a81548160ff021916908315150217905550600081815481106110d7577f4e487b7100000000000000000000000000000000000000000000000000000000600052603260045260246000fd5b906000526020600020906005020160030160008154809291906110f99061193c565b919050555050565b82805461110d9061190a565b90600052602060002090601f01602090048101928261112f5760008555611176565b82601f1061114857805160ff1916838001178555611176565b82800160010185558215611176579182015b8281111561117557825182559160200191906001019061115a565b5b5090506111839190611187565b5090565b5b808211156111a0576000816000905550600101611188565b5090565b60006111b76111b2846117f1565b6117c0565b9050828152602081018484840111156111cf57600080fd5b6111da8482856118c8565b509392505050565b6000813590506111f181611a52565b92915050565b60008135905061120681611a69565b92915050565b600082601f83011261121d57600080fd5b813561122d8482602086016111a4565b91505092915050565b60008135905061124581611a80565b92915050565b60006020828403121561125d57600080fd5b600061126b848285016111e2565b91505092915050565b60008060006060848603121561128957600080fd5b600084013567ffffffffffffffff8111156112a357600080fd5b6112af8682870161120c565b93505060206112c086828701611236565b92505060406112d1868287016111f7565b9150509250925092565b6000602082840312156112ed57600080fd5b60006112fb84828501611236565b91505092915050565b61130d81611880565b82525050565b61131c8161186e565b82525050565b61132b81611892565b82525050565b600061133c82611821565b611346818561182c565b93506113568185602086016118d7565b61135f81611a41565b840191505092915050565b600061137760248361182c565b91507f4f6e6c79206d616e616765722063616e2063616c6c20746869732066756e637460008301527f696f6e2e000000000000000000000000000000000000000000000000000000006020830152604082019050919050565b60006113dd601d8361182c565b91507f43616e6e6f7420617070726f766520726571756573742074776963652e0000006000830152602082019050919050565b600061141d60228361182c565b91507f4d7573742068617665206d6f7265207468616e2035302520617070726f76616c60008301527f732e0000000000000000000000000000000000000000000000000000000000006020830152604082019050919050565b6000611483602a8361182c565b91507f436f6e747269627574696f6e206d75737420626520677265617465722074686160008301527f6e206d696e696d756d2e000000000000000000000000000000000000000000006020830152604082019050919050565b60006114e9601d8361182c565b91507f52657175657374206d757374206e6f7420626520636f6d706c6574652e0000006000830152602082019050919050565b600061152960288361182c565b91507f4d75737420626520616e20617070726f76657220746f20617070726f7665207260008301527f657175657374732e0000000000000000000000000000000000000000000000006020830152604082019050919050565b61158b816118be565b82525050565b60006020820190506115a66000830184611313565b92915050565b60006020820190506115c16000830184611322565b92915050565b600060208201905081810360008301526115e18184611331565b905092915050565b600060a08201905081810360008301526116038188611331565b90506116126020830187611582565b61161f6040830186611304565b61162c6060830185611322565b6116396080830184611582565b9695505050505050565b6000602082019050818103600083015261165c8161136a565b9050919050565b6000602082019050818103600083015261167c816113d0565b9050919050565b6000602082019050818103600083015261169c81611410565b9050919050565b600060208201905081810360008301526116bc81611476565b9050919050565b600060208201905081810360008301526116dc816114dc565b9050919050565b600060208201905081810360008301526116fc8161151c565b9050919050565b60006020820190506117186000830184611582565b92915050565b600061012082019050611734600083018c611582565b611741602083018b611582565b61174e604083018a611582565b61175b6060830189611582565b6117686080830188611313565b81810360a083015261177a8187611331565b905081810360c083015261178e8186611331565b905081810360e08301526117a28185611331565b90506117b2610100830184611582565b9a9950505050505050505050565b6000604051905081810181811067ffffffffffffffff821117156117e7576117e6611a12565b5b8060405250919050565b600067ffffffffffffffff82111561180c5761180b611a12565b5b601f19601f8301169050602081019050919050565b600081519050919050565b600082825260208201905092915050565b6000611848826118be565b9150611853836118be565b925082611863576118626119b4565b5b828204905092915050565b60006118798261189e565b9050919050565b600061188b8261189e565b9050919050565b60008115159050919050565b600073ffffffffffffffffffffffffffffffffffffffff82169050919050565b6000819050919050565b82818337600083830152505050565b60005b838110156118f55780820151818401526020810190506118da565b83811115611904576000848401525b50505050565b6000600282049050600182168061192257607f821691505b60208210811415611936576119356119e3565b5b50919050565b6000611947826118be565b91507fffffffffffffffffffffffffffffffffffffffffffffffffffffffffffffffff82141561197a57611979611985565b5b600182019050919050565b7f4e487b7100000000000000000000000000000000000000000000000000000000600052601160045260246000fd5b7f4e487b7100000000000000000000000000000000000000000000000000000000600052601260045260246000fd5b7f4e487b7100000000000000000000000000000000000000000000000000000000600052602260045260246000fd5b7f4e487b7100000000000000000000000000000000000000000000000000000000600052604160045260246000fd5b6000601f19601f8301169050919050565b611a5b8161186e565b8114611a6657600080fd5b50565b611a7281611880565b8114611a7d57600080fd5b50565b611a89816118be565b8114611a9457600080fd5b5056fea2646970667358221220f6c5f6bb1f926759626539cfad72e8e1e8c511bccdd8536406740e12e5c3912d64736f6c63430008000033",
  "immutableReferences": {},
  "source": "// SPDX-License-Identifier: MIT\r\npragma solidity ^0.8.0;\r\n\r\ncontract CampaignFactory {\r\n    address[] public deployedCampaigns;\r\n\r\n    function createCampaign(\r\n        uint256 minimum,\r\n        string memory name,\r\n        string memory description,\r\n        string memory image,\r\n        uint256 target\r\n    ) public {\r\n        address newCampaign = address(\r\n            new Campaign(minimum, msg.sender, name, description, image, target)\r\n        );\r\n        deployedCampaigns.push(newCampaign);\r\n    }\r\n\r\n    function getDeployedCampaigns() public view returns (address[] memory) {\r\n        return deployedCampaigns;\r\n    }\r\n}\r\n\r\ncontract Campaign {\r\n    struct Request {\r\n        string description;\r\n        uint256 value;\r\n        address payable recipient;\r\n        bool complete;\r\n        uint256 approvalCount;\r\n        mapping(address => bool) approvals;\r\n    }\r\n\r\n    Request[] public requests;\r\n    address public manager;\r\n    uint256 public minimumContribution;\r\n    string public campaignName;\r\n    string public campaignDescription;\r\n    string public imageUrl;\r\n    uint256 public targetToAchieve;\r\n    address[] public contributors;\r\n    mapping(address => bool) public approvers;\r\n    uint256 public approversCount;\r\n\r\n    modifier restricted() {\r\n        require(msg.sender == manager, \"Only manager can call this function.\");\r\n        _;\r\n    }\r\n\r\n    constructor(\r\n        uint256 minimum,\r\n        address creator,\r\n        string memory name,\r\n        string memory description,\r\n        string memory image,\r\n        uint256 target\r\n    ) {\r\n        manager = creator;\r\n        minimumContribution = minimum;\r\n        campaignName = name;\r\n        campaignDescription = description;\r\n        imageUrl = image;\r\n        targetToAchieve = target;\r\n    }\r\n\r\n    function contribute() public payable {\r\n        require(\r\n            msg.value > minimumContribution,\r\n            \"Contribution must be greater than minimum.\"\r\n        );\r\n\r\n        // require(recipient != address(0), \"Invalid recipient address\");\r\n        // recipient.transfer(msg.value); // Transfer Ether to recipient address\r\n\r\n        contributors.push(msg.sender);\r\n        approvers[msg.sender] = true;\r\n        approversCount++;\r\n    }\r\n\r\n    function createRequest(\r\n        string memory description,\r\n        uint256 value,\r\n        address payable recipient\r\n    ) public restricted {\r\n        Request storage newRequest = requests.push();\r\n        newRequest.description = description;\r\n        newRequest.value = value;\r\n        newRequest.recipient = recipient;\r\n        newRequest.complete = false;\r\n        newRequest.approvalCount = 0;\r\n    }\r\n\r\n    function approveRequest(uint256 index) public {\r\n        require(\r\n            approvers[msg.sender],\r\n            \"Must be an approver to approve requests.\"\r\n        );\r\n        require(\r\n            !requests[index].approvals[msg.sender],\r\n            \"Cannot approve request twice.\"\r\n        );\r\n\r\n        requests[index].approvals[msg.sender] = true;\r\n        requests[index].approvalCount++;\r\n    }\r\n\r\n    function finalizeRequest(uint256 index) public restricted {\r\n        require(\r\n            requests[index].approvalCount > (approversCount / 2),\r\n            \"Must have more than 50% approvals.\"\r\n        );\r\n        require(!requests[index].complete, \"Request must not be complete.\");\r\n\r\n        requests[index].recipient.transfer(requests[index].value);\r\n        requests[index].complete = true;\r\n    }\r\n\r\n    function getSummary()\r\n        public\r\n        view\r\n        returns (\r\n            uint256,\r\n            uint256,\r\n            uint256,\r\n            uint256,\r\n            address,\r\n            string memory,\r\n            string memory,\r\n            string memory,\r\n            uint256\r\n        )\r\n    {\r\n        return (\r\n            minimumContribution,\r\n            address(this).balance,\r\n            requests.length,\r\n            approversCount,\r\n            manager,\r\n            campaignName,\r\n            campaignDescription,\r\n            imageUrl,\r\n            targetToAchieve\r\n        );\r\n    }\r\n\r\n    function getRequestsCount() public view returns (uint256) {\r\n        return requests.length;\r\n    }\r\n}\r\n",
  "sourcePath": "C:\\Users\\Asus\\Desktop\\crowd\\smart-contract\\contracts\\Campaigns.sol",
  "compiler": {
    "name": "solc",
    "version": "0.8.0+commit.c7dfd78e.Emscripten.clang"
  },
  "schemaVersion": "3.4.16",
  "updatedAt": "2024-07-01T19:40:36.910Z",
  "networkType": "ethereum",
  "devdoc": {
    "kind": "dev",
    "methods": {},
    "version": 1
  },
  "userdoc": {
    "kind": "user",
    "methods": {},
    "version": 1
  }
}